:020000040000FA
:0600000096D0100C000C6C
:0800080052D107D2D8D199D1E1
:10001000FDD1D0D1CBD1A0D1EFD10DD30CD2DBD239
:1000200059D251D25FD2F4D274D236D241D28BD2CD
:100030008CD29DD2A2D27BD07AD0AED2B3D2FF0FD7
:10004000D8A4FDD7000012000D4D453237303020C6
:100050004C6F616465722000312E300D0000203F2E
:10006000486578000000203F43736D000000203F8A
:100070005665722000000D4C6F6164656420486510
:1000800078205265636F7264733A200000000D455A
:1000900072726F72733A200000000D496E697469C4
:1000A000616C697A696E6720454550524F4D00007A
:1000B0000D4E657720004D45323730302053657244
:1000C00069616C204E756D6265723A200000756E34
:1000D0006368616E6765640000002028592F4E290F
:1000E0003F2000000D436C65617220616C6C2045FF
:1000F0004550524F4D207661726961626C657300A4
:1001000000000D416C6C20454550524F4D207661EA
:10011000726961626C657320636C6561726564000D
:1001200000000D52756E20636F6465000000720E52
:10013000D36E896A030E926E030E7E6E8A680A0E73
:10014000936E0A0E7F6E020E826E900E946E8C6A13
:100150008D6A8D84080E966E800EB46E240ECB6E62
:10016000040ECA6EBE6A0C0EBD6E010EB96E100E84
:10017000B66E800EB76E9C0E7B6E080EB86EA00E2B
:10018000AF6E010EB06E240EAC6E900EAB6E006AB8
:10019000016AE00E026E036E020E0B6EAE50AE50A0
:1001A000040E0C6E200E9D6E200EC66E400EC76EA5
:1001B0008B92010EC96E08DAC96A06DA8B82D56A9B
:1001C0008B84C00EF26E140E0E6E000EF76E480E8B
:1001D000F66E000EA96ECCD9A92A0900F518D8A48C
:1001E0008CD20E2EF8D784B69AD2280ED5D915D92E
:1001F0004C0AD8A400EF04F0DBD90FD9FEE04C0A7A
:10020000FCE0DED801D06CDA0D503A0AFCE1046A59
:100210000C9008DA0F6E06DA066E04DA056E02DA62
:10022000106E1052D8B40CA2068E11500518C00BD7
:1002300004E112507F0B061809E012AE1CDA06C06A
:1002400012F00550C00B116E12AE07DA0F5207E024
:1002500005503F0BE16EE6D9E66E0F2EFCD7E2D9D2
:1002600000EE66F0D8A466D80CB062D806BE02D004
:10027000074A082A100409E0030AC5E10C92E16A62
:10028000E650E710D8B40C82BED700EE76F055D811
:1002900008C00EF007C00DF05FD800EE8EF04DD80C
:1002A0000AC00EF009C00DF057D882D9ACD79EBA5B
:1002B00011D89DB89EA81100000EDA6E0350D96EB9
:1002C000DF50AD6E032A03980250031802E10B823F
:1002D00029D81100010EDA6E0050D96EAE507F0B96
:1002E00012E00BB021D0DF6E130A1BE01E0A0CE0F7
:1002F000070A0EE00B940B960BB81200002A005070
:10030000011801E10B8812000BB608D00B84F4D75A
:100310000BB404D00D0EDF6E0B86EED70B940B964C
:1003200012000B809D9812000B900BA29D8812006A
:1003300000EE5EF0092AD8B40A2AE9CFF6FFEACF28
:10034000F7FFF86A9D9A0900F55002E038D8FBD70C
:10035000F6A0F9D79D8A12000C820EC0F4FF0DC0E2
:10036000F3FF270E0E6E100E0D6E0ED8030E0E6EDE
:10037000E80E0D6E09D80E6A640E0D6E05D80A0ED1
:100380000D6E02D8F35010D00F680F2A0D50F35E97
:100390000E50F45AFAE20D50F3260E50F4220F508C
:1003A000D8A40C920CB21200300F09D00E6E0E3889
:1003B00001D80E500F0B0908D8B0070F40080D6E7A
:1003C000000EEA6E0250E96E031802E10BA2FAD7A2
:1003D0000D50EF6EF29E130AD8A4020AD8B40B9007
:1003E000022A02980B920BA09D88F28E0D500D0AE6
:1003F000D8A412000A0EE3D70D0EDFEC01F0000EB8
:10040000F76E00EEB6F099DF140EA96EB1D80009B0
:10041000D8B41200D4DFA92AF9D70150E96E001828
:100420000BA807E0010EEA6EF29E012A0B98EF502E
:10043000F28E0D6E12000E6E0C900C9610EE60F0A7
:100440000E2AEBDFFEE00D0A1CE0050A0DE0770A3C
:100450000BE07C0A1DE0180A1BE00E4EF1D70D5090
:10046000E66E0CB4ACDFEDD7E150600AEAE0080EAE
:10047000A6DF200EA4DF080EDFEC01F00E2AE10655
:10048000E0D7E76A10EE60F0E75001E10C86120059
:100490000C8012000D0E93DF00EEDAF04EDF080E36
:1004A000CADF11D8590A03E0170AF4E1D894120000
:1004B000B4DFD89007E0030A02E0180AD8B4D88065
:1004C0000D50D894120006D87A0802E30DBC0D9A9C
:1004D0000D501200000E0CB603D0E650D8B40C86B6
:1004E0000D6E12000C900C92F36AF4DF0CB60FD074
:1004F000200A0DE00C82300E0D5E0A0EF3020D5C38
:1005000005E20D50F32602E2F452EFE00C80F350C6
:1005100012000C920C900E6A0F6A0CB61200D3DF18
:10052000200AFDE00CB612000C820F0E0F16F00E22
:100530000E140F120F3A7FD804E2C5DF200AF2E151
:1005400012000C801200030E02D00E6E020E8B926F
:10055000C9CF0DF0C96E38D806C0C9FF35D805C05F
:10056000C9FF32D80EC0C9FF2FD88B821200A96EE6
:10057000A69EA69CA680A8501200A198A86EF29EE6
:10058000040EA66E550EA76EAA0EA76EA682A6949E
:10059000F28EA1A8FED712000E6E640E03D80E2EA6
:1005A000FCD712000D6EF80E4ADD0D2EFCD712009E
:1005B00023DF096A0A6A076A086A0C92128E020E21
:1005C000E26E00EE48F0B9D6C7A0FED7C9501200BF
:1005D00024DFFEE0F5D6E1CFD9FFE2CFDAFFD9CFB5
:1005E000E1FFDACFE2FF0C960E6A0800F550D8B4AE
:1005F0001200090068DF200AD8A4200AF5180E129C
:10060000F566F7D7F6A009000900E9E1F5501200F8
:1006100007D8D8B00C8004D8D8B00C8004261200BB
:1006200059DF09D007D8D8B00C8004D8D8B00C80D6
:1006300004261200CDDF300E0D5E0A0E0D5C08E3BD
:10064000110E0D5E060E0D5CD8B012000A0E0D26BE
:100650000E38F00B0D100E6E12003BD80D6A400ED6
:100660000E6E0900F550E7180D12F550E66E0E2ECD
:10067000F8D70D521200130EA2DE00500E6E0D0EB2
:1006800091DF0E500018F9E124D8F29E940EA66E68
:10069000550EA76EAA0EA76EA682020E0E6E0A0057
:1006A000200E0D6EE650F56E0F000D2EFBD7840E5A
:1006B000A66E550EA76EAA0EA76EA6820E2EF0D7B6
:1006C000A694CBDFF28E00EE6EF0D8A433DE110ECE
:1006D00076D6E16AF86A12C0F7FF11C0F6FF120081
:1006E000030E0E6E75DF0CB212000D501B0AD8A45B
:1006F00012000E2EF7D700EF04F000EE9AF01DDE88
:10070000140E0E6E480EF66E000EA96E0900F5501E
:1007100034DFA92A0E2EFAD720D8FEE00BD06CDEEB
:100720001CD800EECEF0D8B408DE00EEE4F005DE12
:10073000B3DE0CE1E40E0E6E1C0EA96E000E1DDF82
:10074000A92A0E2EFBD701EE02F0F7DD01EE22F012
:10075000F4DDA2DEE4E100EF04F000EEB0F0EDDD48
:10076000080E1BEC02F0D8B41200140EA96EE6506D
:0E0770000E6E03DFA92A0E52FAE1D894120091
:1008000008EE0CF09DEC01F0FCEF00F00D0D4E6FCA
:100810002070726F6772616D6D6572206669726DAE
:1008200077617265206C6F616465642E0D53656E2F
:1008300064204D45323730302E686578206E6F77F2
:040840002E0D000079
:020000040030CA
:0300010008001ED6
:02000500078072
:060008000FC00F800F4045
:0200000400F00A
:10000000556E696E697469616C697A6564204545ED
:0600100050524F4D0000AC
:00000001FF
